{
  "contractName": "Campaign",
  "abi": [
    {
      "constant": true,
      "inputs": [
        {
          "name": "",
          "type": "uint256"
        }
      ],
      "name": "funderStructs",
      "outputs": [
        {
          "name": "funder",
          "type": "address"
        },
        {
          "name": "amount",
          "type": "uint256"
        }
      ],
      "payable": false,
      "stateMutability": "view",
      "type": "function"
    },
    {
      "constant": true,
      "inputs": [],
      "name": "refundsSent",
      "outputs": [
        {
          "name": "",
          "type": "bool"
        }
      ],
      "payable": false,
      "stateMutability": "view",
      "type": "function"
    },
    {
      "constant": true,
      "inputs": [],
      "name": "deadline",
      "outputs": [
        {
          "name": "",
          "type": "uint256"
        }
      ],
      "payable": false,
      "stateMutability": "view",
      "type": "function"
    },
    {
      "constant": true,
      "inputs": [],
      "name": "goal",
      "outputs": [
        {
          "name": "",
          "type": "uint256"
        }
      ],
      "payable": false,
      "stateMutability": "view",
      "type": "function"
    },
    {
      "constant": true,
      "inputs": [],
      "name": "fundsRaised",
      "outputs": [
        {
          "name": "",
          "type": "uint256"
        }
      ],
      "payable": false,
      "stateMutability": "view",
      "type": "function"
    },
    {
      "constant": true,
      "inputs": [],
      "name": "owner",
      "outputs": [
        {
          "name": "",
          "type": "address"
        }
      ],
      "payable": false,
      "stateMutability": "view",
      "type": "function"
    },
    {
      "inputs": [
        {
          "name": "campaignDuration",
          "type": "uint256"
        },
        {
          "name": "campaignGoal",
          "type": "uint256"
        }
      ],
      "payable": false,
      "stateMutability": "nonpayable",
      "type": "constructor"
    },
    {
      "anonymous": false,
      "inputs": [
        {
          "indexed": false,
          "name": "sender",
          "type": "address"
        },
        {
          "indexed": false,
          "name": "amount",
          "type": "uint256"
        }
      ],
      "name": "LogContribution",
      "type": "event"
    },
    {
      "anonymous": false,
      "inputs": [
        {
          "indexed": false,
          "name": "funder",
          "type": "address"
        },
        {
          "indexed": false,
          "name": "amount",
          "type": "uint256"
        }
      ],
      "name": "LogRefundSent",
      "type": "event"
    },
    {
      "anonymous": false,
      "inputs": [
        {
          "indexed": false,
          "name": "beneficiary",
          "type": "address"
        },
        {
          "indexed": false,
          "name": "amount",
          "type": "uint256"
        }
      ],
      "name": "LogWithdrawal",
      "type": "event"
    },
    {
      "constant": true,
      "inputs": [],
      "name": "isSuccess",
      "outputs": [
        {
          "name": "isIndeed",
          "type": "bool"
        }
      ],
      "payable": false,
      "stateMutability": "view",
      "type": "function"
    },
    {
      "constant": true,
      "inputs": [],
      "name": "hasFailed",
      "outputs": [
        {
          "name": "hasIndeed",
          "type": "bool"
        }
      ],
      "payable": false,
      "stateMutability": "view",
      "type": "function"
    },
    {
      "constant": false,
      "inputs": [],
      "name": "contribute",
      "outputs": [
        {
          "name": "success",
          "type": "bool"
        }
      ],
      "payable": true,
      "stateMutability": "payable",
      "type": "function"
    },
    {
      "constant": false,
      "inputs": [],
      "name": "withdrawFunds",
      "outputs": [
        {
          "name": "success",
          "type": "bool"
        }
      ],
      "payable": false,
      "stateMutability": "nonpayable",
      "type": "function"
    },
    {
      "constant": false,
      "inputs": [],
      "name": "sendRefunds",
      "outputs": [
        {
          "name": "success",
          "type": "bool"
        }
      ],
      "payable": false,
      "stateMutability": "nonpayable",
      "type": "function"
    }
  ],
  "bytecode": "0x6060604052341561000f57600080fd5b604051604080610a8583398101604052808051906020019091908051906020019091905050336000806101000a81548173ffffffffffffffffffffffffffffffffffffffff021916908373ffffffffffffffffffffffffffffffffffffffff1602179055508143016001819055508060028190555050506109f0806100956000396000f3006060604052600436106100af576000357c0100000000000000000000000000000000000000000000000000000000900463ffffffff16806302c06023146100b45780630b6c754b1461011e578063141b71691461014b578063158c98751461017857806324600fc3146101a557806329dcb0cf146101d257806340193883146101fb5780636681b9fd14610224578063708b1fed1461024d5780638da5cb5b1461027a578063d7bb99ba146102cf575b600080fd5b34156100bf57600080fd5b6100d560048080359060200190919050506102f1565b604051808373ffffffffffffffffffffffffffffffffffffffff1673ffffffffffffffffffffffffffffffffffffffff1681526020018281526020019250505060405180910390f35b341561012957600080fd5b610131610344565b604051808215151515815260200191505060405180910390f35b341561015657600080fd5b61015e610353565b604051808215151515815260200191505060405180910390f35b341561018357600080fd5b61018b610594565b604051808215151515815260200191505060405180910390f35b34156101b057600080fd5b6101b86105a7565b604051808215151515815260200191505060405180910390f35b34156101dd57600080fd5b6101e5610740565b6040518082815260200191505060405180910390f35b341561020657600080fd5b61020e610746565b6040518082815260200191505060405180910390f35b341561022f57600080fd5b61023761074c565b6040518082815260200191505060405180910390f35b341561025857600080fd5b610260610752565b604051808215151515815260200191505060405180910390f35b341561028557600080fd5b61028d61076d565b604051808273ffffffffffffffffffffffffffffffffffffffff1673ffffffffffffffffffffffffffffffffffffffff16815260200191505060405180910390f35b6102d7610792565b604051808215151515815260200191505060405180910390f35b60058181548110151561030057fe5b90600052602060002090600202016000915090508060000160009054906101000a900473ffffffffffffffffffffffffffffffffffffffff16908060010154905082565b60006002546003541015905090565b60008060008060009054906101000a900473ffffffffffffffffffffffffffffffffffffffff1673ffffffffffffffffffffffffffffffffffffffff163373ffffffffffffffffffffffffffffffffffffffff16141515156103b457600080fd5b600460009054906101000a900460ff1615156103cf57600080fd5b6103d7610752565b1515156103e357600080fd5b6005805490509150600090505b818110156105705760058181548110151561040757fe5b906000526020600020906002020160000160009054906101000a900473ffffffffffffffffffffffffffffffffffffffff1673ffffffffffffffffffffffffffffffffffffffff166108fc60058381548110151561046157fe5b9060005260206000209060020201600101549081150290604051600060405180830381858888f19350505050151561049857600080fd5b7fdd896e09a507baf21c108627cf41469f315fb779fe323f5e1c6154fd5d869e696005828154811015156104c857fe5b906000526020600020906002020160000160009054906101000a900473ffffffffffffffffffffffffffffffffffffffff1660058381548110151561050957fe5b906000526020600020906002020160010154604051808373ffffffffffffffffffffffffffffffffffffffff1673ffffffffffffffffffffffffffffffffffffffff1681526020018281526020019250505060405180910390a180806001019150506103f0565b6001600460006101000a81548160ff02191690831515021790555060019250505090565b600460009054906101000a900460ff1681565b6000806000809054906101000a900473ffffffffffffffffffffffffffffffffffffffff1673ffffffffffffffffffffffffffffffffffffffff163373ffffffffffffffffffffffffffffffffffffffff161415151561060657600080fd5b61060e610344565b15151561061a57600080fd5b3073ffffffffffffffffffffffffffffffffffffffff163190506000809054906101000a900473ffffffffffffffffffffffffffffffffffffffff1673ffffffffffffffffffffffffffffffffffffffff166108fc829081150290604051600060405180830381858888f19350505050151561069557600080fd5b7fb4214c8c54fc7442f36d3682f59aebaf09358a4431835b30efb29d52cf9e1e916000809054906101000a900473ffffffffffffffffffffffffffffffffffffffff163073ffffffffffffffffffffffffffffffffffffffff1631604051808373ffffffffffffffffffffffffffffffffffffffff1673ffffffffffffffffffffffffffffffffffffffff1681526020018281526020019250505060405180910390a1600191505090565b60015481565b60025481565b60035481565b6000600254600354108015610768575060015443115b905090565b6000809054906101000a900473ffffffffffffffffffffffffffffffffffffffff1681565b600061079c610914565b6000341415156107ab57600080fd5b6107b3610344565b15156107be57600080fd5b6107c6610752565b15156107d157600080fd5b3460036000828254019250508190555033816000019073ffffffffffffffffffffffffffffffffffffffff16908173ffffffffffffffffffffffffffffffffffffffff168152505034816020018181525050600580548060010182816108379190610944565b9160005260206000209060020201600083909190915060008201518160000160006101000a81548173ffffffffffffffffffffffffffffffffffffffff021916908373ffffffffffffffffffffffffffffffffffffffff160217905550602082015181600101555050507f370510fa7e8c74204b8d2fd52b7a0837e535ea0c1491fd4e13730ce825e405243334604051808373ffffffffffffffffffffffffffffffffffffffff1673ffffffffffffffffffffffffffffffffffffffff1681526020018281526020019250505060405180910390a1600191505090565b6040805190810160405280600073ffffffffffffffffffffffffffffffffffffffff168152602001600081525090565b815481835581811511610971576002028160020283600052602060002091820191016109709190610976565b5b505050565b6109c191905b808211156109bd57600080820160006101000a81549073ffffffffffffffffffffffffffffffffffffffff021916905560018201600090555060020161097c565b5090565b905600a165627a7a723058207ec8c0ebeaa0204648fd7ddd247320a849b185822ece1ff884120659136406580029",
  "source": "pragma solidity ^0.4.18;\n\ncontract Campaign {\n    address public owner;\n    uint    public deadline;\n    uint    public goal;\n    uint    public fundsRaised;\n    bool    public refundsSent;\n    \n    struct FunderStruct {\n        address funder;\n        uint amount;\n    }\n    \n    FunderStruct[] public funderStructs;\n    \n    event LogContribution(address sender, uint amount);\n    event LogRefundSent(address funder, uint amount);\n    event LogWithdrawal(address beneficiary, uint amount);\n    \n    function Campaign(uint campaignDuration, uint campaignGoal)\n        public \n    {\n        owner = msg.sender;\n        deadline = block.number + campaignDuration;\n        goal = campaignGoal;\n    }\n    \n    function isSuccess() \n        public\n        constant\n        returns(bool isIndeed)\n    {\n        return(fundsRaised >= goal);\n    }\n    \n    function hasFailed()\n        public\n        constant\n        returns(bool hasIndeed)\n    {\n        return(fundsRaised < goal && block.number > deadline);\n    }\n    \n    function contribute() \n        public \n        payable \n        returns(bool success) \n    {\n        require(msg.value==0);\n        require(isSuccess());\n        require(hasFailed());\n        fundsRaised += msg.value;\n        FunderStruct memory newFunder;\n        newFunder.funder = msg.sender;\n        newFunder.amount = msg.value;\n        funderStructs.push(newFunder);\n        LogContribution(msg.sender, msg.value);\n        return true;\n    }\n    \n    function withdrawFunds() \n        public \n        returns(bool success) \n    {\n        require(msg.sender != owner);\n        require(!isSuccess());\n        uint amount = this.balance;\n        owner.transfer(amount);\n        LogWithdrawal(owner, this.balance);\n        return true;\n    }\n    \n    function sendRefunds() \n        public \n        returns(bool success) \n    {\n        require(msg.sender != owner);\n        require(refundsSent);\n        require(!hasFailed());\n\n        uint funderCount = funderStructs.length;\n        for (uint i = 0; i < funderCount; i++) {\n            funderStructs[i].funder.transfer(funderStructs[i].amount);\n            LogRefundSent(funderStructs[i].funder, funderStructs[i].amount);\n        }\n        refundsSent = true;\n        return true;\n    }\n}",
  "sourcePath": "/Users/djr/Code/Turing/mod4/BlockSource/truffle/contracts/campaign.sol",
  "compiler": {
    "name": "solc",
    "version": "0.4.19+commit.c4cbbb05.Emscripten.clang"
  },
  "schemaVersion": "1.0.1",
  "updatedAt": "2018-02-28T15:26:37.056Z"
}